:100000002CC076C09BC044C043C042C041C040C069
:100010003FC05AC03DC03CC03BC03AC039C038C0E8
:1000200037C036C035C008080808000008060008B8
:10003000070008080007080006080000080000087C
:100040000600080700080800070800050800000867
:100050000600080800080800060011241FBECFE5AE
:10006000D4E0DEBFCDBF10E0A0E6B0E0E4E5F4E010
:1000700002C005900D92A436B107D9F710E0A4E6AE
:10008000B0E001C01D92AB36B107E1F78ED0E0C100
:10009000B7CF26E230E093E0899FC0011124F90137
:1000A000E80FF91FE491E09367000196F901E80F6A
:1000B000F91FE491E09368000196280F391FF901B8
:1000C00084918093690008951F920F920FB60F924A
:1000D00011248F939F938FE790E09093610080931A
:1000E00060009F918F910F900FBE0F901F901895F9
:1000F0001F920F920FB60F9211248F939F93F89433
:1001000005B600FE07C012BE83B7836083BF85B704
:100110008E7F0BC083B7887F83BF82B790E09093B8
:1001200061008093600085B7816085BF78949F915E
:100130008F910F900FBE0F901F9018951F920F92E6
:100140000FB60F9211248F93F8948091640087FF6B
:1001500002C01092640078948F910F900FBE0F90A0
:100160001F90189580E090E05AD1813108F080E02E
:1001700080936A008EDF80E88093640084B38F638D
:1001800084BB85B7836085BF8BB780648BBF85B721
:10019000886085BF8BB780688BBF83B7836083BF60
:1001A00089B7816089BF78940895AF92BF92CF924A
:1001B000DF92EF92FF920F931F93CF93DF93D2DFE3
:1001C00000E8B02E10E4A12EBFE7CB2ED12CCCEF4F
:1001D000D1E08091640087FD60C080B3109164001D
:1001E000107483FD03C0112319F009C0112349F1D4
:1001F000809164008F5F80936400112311F18091DE
:10020000650090916600805D9740D8F4809165000C
:1002100090916600019690936600809365008091AE
:10022000650090916600805D974059F480E090E011
:1002300060916A00FCD010926900109268001092E0
:100240006700809164008F708F3039F5112339F485
:10025000A092640010926600109265001EC0B092D9
:1002600064008091650090916600805D974059F42C
:10027000109266001092650080E090E0D0D081314D
:1002800048F080E007C080916A0090E0019661E14B
:1002900070E09ED080936A00FCDE849903C080E009
:1002A00090E002C08FE790E090936300809362003B
:1002B00080916000909161009601281B390B80911C
:1002C000620090916300A601481B590BE091670002
:1002D000C9010E2E02C0880F991F0A94E2F7A6E00A
:1002E00096958795AA95E1F77E01E81AF90A60913B
:1002F0006800C901062E02C0880F991F0A94E2F710
:10030000F6E096958795FA95E1F78E01081B190B93
:1003100080916900082E02C0220F331F0A94E2F771
:1003200076E0369527957A95E1F7DE01A21BB30BAF
:100330009A0102C0220F331FEA95E2F7F90126E085
:10034000F695E7952A95E1F79E012E1B3F0BF901E3
:100350009A0102C0220F331F6A95E2F7B90196E0B5
:10036000769567959A95E1F79E01261B370BB901A3
:1003700002C0440F551F8A95E2F786E056954795CF
:100380008A95E1F79E01241B350B80E090E08E15E5
:100390009F0509F4AD9A8017910709F4AC9A8A1762
:1003A0009B0709F4AB9A8E179F0709F4AA9A861740
:1003B000970709F4A99A8217930709F4A89A019656
:1003C00041E08C3F940719F785B3807C85BB01CF52
:1003D00097FB092E07260AD077FD04D00CD006D053
:1003E00000201AF4709561957F4F0895F6F7909567
:1003F00081959F4F0895AA1BBB1B51E107C0AA1FFF
:10040000BB1FA617B70710F0A61BB70B881F991FB5
:100410005A95A9F780959095BC01CD010895E19971
:10042000FECF9FBB8EBBE09A99278DB30895262FF0
:10043000E199FECF9FBB8EBBE09A01970DB20216E9
:1004400031F02DBB0FB6F894E29AE19A0FBE0895F1
:04045000F894FFCF4E
:040454000A0000009A
:00000001FF
