:1000000012C059C07EC02AC029C028C027C026C03F
:1000100025C03DC023C022C021C020C01FC01EC0BB
:100020001DC01CC01BC011241FBECFE5D4E0DEBF25
:10003000CDBF10E0A0E6B0E0E8ECF2E002C0059031
:100040000D92AE36B107D9F710E0AEE6B0E001C0D0
:100050001D92AD37B107E1F76CD034C1D1CF81B378
:10006000836F81BB939A85B7836085BF8BB78064AC
:100070008BBF85B7886085BF8BB780688BBF83B720
:10008000836083BF89B7816089BF789408951F9288
:100090000F920FB60F9211248F939F938FE790E0EA
:1000A00090936D0080936C009F918F910F900FBE85
:1000B0000F901F9018951F920F920FB60F92112458
:1000C0008F939F93F89405B600FE07C012BE83B7C6
:1000D000836083BF85B78E7F0BC083B7887F83BF64
:1000E00082B790E090936D0080936C0085B781603B
:1000F00085BF78949F918F910F900FBE0F901F90A6
:1001000018951F920F920FB60F9211248F939F9301
:10011000F8948091700090E00196837090708093C5
:10012000700078949F918F910F900FBE0F901F9049
:1001300018959F92AF92BF92CF92DF92EF92FF926B
:100140000F931F93CF93DF938ADF8FE7A82EB12CF5
:1001500003E0902ECCEFD1E0B09903C080E090E0B6
:1001600002C08FE790E090936F0080936E008091C3
:100170006C0090916D009501281B390B80916E00E9
:1001800090916F00B501681B790BE0917000E99DBB
:10019000F0011124E05AFF4FA081C9010A2E02C0CC
:1001A000880F991F0A94E2F716E0959587951A959E
:1001B000E1F76E01C81AD90AD0927200C09271009C
:1001C0004181C901042E02C0880F991F0A94E2F7E9
:1001D000B6E095958795BA95E1F77E01E81AF90A98
:1001E000F0927400E09273008281082E02C0220F08
:1001F000331F0A94E2F756E0359527955A95E1F7B3
:100200008E01021B130B10937600009375009B0167
:1002100002C0220F331FAA95E2F7D90126E0B59557
:10022000A7952A95E1F7FE01EA1BFB0BF0937800F6
:10023000E09377009B0102C0220F331F4A95E2F73B
:10024000A90196E0559547959A95E1F79E01241BE3
:10025000350BA90130937A002093790002C0660F14
:10026000771F8A95E2F786E0759567958A95E1F79D
:100270009E01261B370B30937C0020937B0080E08F
:1002800090E08C159D0509F4909A8E159F0509F450
:10029000919A8017910709F4949A8E179F0709F491
:1002A000959A8417950709F4969A8217930709F48B
:1002B000979A019661E08C3F960719F782B38C708C
:0802C00082BB4ACFF894FFCF86
:0E02C8000808080800060806000006080A00DC
:00000001FF
